:100000000C9434000C9451000C9451000C94510049
:100010000C9451000C9451000C9451000C9460010C
:100020000C9437010C940E010C9451000C94DB01DC
:100030000C94B2010C9489010C9456020C942D027C
:100040000C9404020C9451000C94B8000C945100D0
:100050000C94E5000C9451000C9451000C94510048
:100060000C9451000C94510011241FBECFEFD8E026
:10007000DEBFCDBF11E0A0E0B1E0E2EAF5E002C0F2
:1000800005900D92A630B107D9F721E0A6E0B1E0C6
:1000900001C01D92A333B207E1F70E947F020C94C6
:1000A000C7020C9400008091C00085FFFCCF81E462
:1000B0008093C6000895E0E0F1E08191882339F053
:1000C0009091C00095FFFCCF8093C600F6CFE091E1
:1000D0000801E053E83008F041C0F0E0E753FD4F7D
:1000E0000C94C10298B120E1922798B93FEF83EDBB
:1000F00090E3315080409040E1F700C0000088B1AB
:10010000822788B9089598B128E0EECF88B190E2AF
:10011000892788B981E090910701911180E080934F
:10012000070108958BB190E489278BB981E0909104
:100130000601911180E08093060108959BB120E1B2
:1001400092279BB93FEF83ED90E331508040904080
:10015000E1F700C000008BB182278BB908959BB1F5
:1001600020E2EECF9BB128E0EBCF9BB124E0E8CFBB
:100170001F920F920FB60F9211242F933F934F931C
:100180005F936F937F938F939F93AF93BF93EF93FF
:10019000FF938091C60080930801E0910901F091DE
:1001A0000A01309709F00995FF91EF91BF91AF9146
:1001B0009F918F917F916F915F914F913F912F917F
:1001C0000F900FBE0F901F9018951F920F920FB6B1
:1001D0000F9211242F933F934F935F936F937F93CD
:1001E0008F939F93AF93BF93EF93FF93E091090198
:1001F000F0910A01309709F00995FF91EF91BF91B5
:10020000AF919F918F917F916F915F914F913F91AE
:100210002F910F900FBE0F901F9018951F920F9265
:100220000FB60F9211242F933F934F935F936F93C9
:100230007F938F939F93AF93BF93EF93FF93E0913F
:100240001B01F0911C01309709F00995FF91EF9186
:10025000BF91AF919F918F917F916F915F914F91DE
:100260003F912F910F900FBE0F901F9018951F92E6
:100270000F920FB60F9211242F933F934F935F93DA
:100280006F937F938F939F93AF93BF93EF93FF935E
:10029000E0911901F0911A01309709F00995FF9149
:1002A000EF91BF91AF919F918F917F916F915F91EE
:1002B0004F913F912F910F900FBE0F901F90189567
:1002C0001F920F920FB60F9211242F933F934F93CB
:1002D0005F936F937F938F939F93AF93BF93EF93AE
:1002E000FF93E0911701F0911801309709F00995FB
:1002F000FF91EF91BF91AF919F918F917F916F91FE
:100300005F914F913F912F910F900FBE0F901F90D3
:1003100018951F920F920FB60F9211242F933F93AF
:100320004F935F936F937F938F939F93AF93BF93FD
:10033000EF93FF93E0911501F0911601309709F0CA
:100340000995FF91EF91BF91AF919F918F917F910F
:100350006F915F914F913F912F910F900FBE0F9032
:100360001F9018951F920F920FB60F9211242F9382
:100370003F934F935F936F937F938F939F93AF932D
:10038000BF93EF93FF93E0911301F0911401309725
:1003900009F00995FF91EF91BF91AF919F918F91D6
:1003A0007F916F915F914F913F912F910F900FBE71
:1003B0000F901F9018951F920F920FB60F92112455
:1003C0002F933F934F935F936F937F938F939F935D
:1003D000AF93BF93EF93FF93E0911101F09112015E
:1003E000309709F00995FF91EF91BF91AF919F91DF
:1003F0008F917F916F915F914F913F912F910F90CE
:100400000FBE0F901F9018951F920F920FB60F926C
:1004100011242F933F934F935F936F937F938F9309
:100420009F93AF93BF93EF93FF93E0910F01F091F0
:100430001001309709F00995FF91EF91BF91AF91AD
:100440009F918F917F916F915F914F913F912F91EC
:100450000F900FBE0F901F9018951F920F920FB61E
:100460000F9211242F933F934F935F936F937F933A
:100470008F939F93AF93BF93EF93FF93E0910D0101
:10048000F0910E01309709F00995FF91EF91BF911E
:10049000AF919F918F917F916F915F914F913F911C
:1004A0002F910F900FBE0F901F9018951F920F92D3
:1004B0000FB60F9211242F933F934F935F936F9337
:1004C0007F938F939F93AF93BF93EF93FF93E091AD
:1004D0000B01F0910C01309709F00995FF91EF9114
:1004E000BF91AF919F918F917F916F915F914F914C
:1004F0003F912F910F900FBE0F901F90189583E0A2
:1005000084B988E387B98CEE8AB98BE590E0909343
:100510000A018093090181E085B987E68093C400D0
:100520001092C5008091C10080698093C1008091C4
:10053000C10088608093C10086E08093C20015BC32
:1005400010926E0085B5826085BD80916E008260DC
:1005500080936E0080916E00846080936E00809125
:100560006E00816080936E008AE087BD85B58660ED
:1005700085BD83E590E090930E0180930D01789402
:10058000FFCFEE0FFF1F0590F491E02D0994F89432
:10059000FFCF72008300860092009E00AF00B20081
:0205A000B500A4
:0605A200474F540A00005F
:00000001FF
